{
  "_format": "hh-sol-artifact-1",
  "contractName": "RealEstate",
  "sourceName": "contracts/RealEstate.sol",
  "abi": [
    {
      "anonymous": false,
      "inputs": [
        {
          "indexed": true,
          "internalType": "uint256",
          "name": "id",
          "type": "uint256"
        },
        {
          "indexed": true,
          "internalType": "address",
          "name": "owner",
          "type": "address"
        },
        {
          "indexed": false,
          "internalType": "uint256",
          "name": "price",
          "type": "uint256"
        }
      ],
      "name": "PropertyListed",
      "type": "event"
    },
    {
      "anonymous": false,
      "inputs": [
        {
          "indexed": true,
          "internalType": "uint256",
          "name": "id",
          "type": "uint256"
        },
        {
          "indexed": true,
          "internalType": "address",
          "name": "oldOwner",
          "type": "address"
        },
        {
          "indexed": true,
          "internalType": "address",
          "name": "newOwner",
          "type": "address"
        },
        {
          "indexed": false,
          "internalType": "uint256",
          "name": "price",
          "type": "uint256"
        }
      ],
      "name": "PropertyResold",
      "type": "event"
    },
    {
      "anonymous": false,
      "inputs": [
        {
          "indexed": true,
          "internalType": "uint256",
          "name": "id",
          "type": "uint256"
        },
        {
          "indexed": true,
          "internalType": "address",
          "name": "oldOwner",
          "type": "address"
        },
        {
          "indexed": true,
          "internalType": "address",
          "name": "newOwner",
          "type": "address"
        },
        {
          "indexed": false,
          "internalType": "uint256",
          "name": "price",
          "type": "uint256"
        }
      ],
      "name": "PropertySold",
      "type": "event"
    },
    {
      "anonymous": false,
      "inputs": [
        {
          "indexed": true,
          "internalType": "uint256",
          "name": "productId",
          "type": "uint256"
        },
        {
          "indexed": true,
          "internalType": "address",
          "name": "reviewer",
          "type": "address"
        },
        {
          "indexed": false,
          "internalType": "uint8",
          "name": "rating",
          "type": "uint8"
        },
        {
          "indexed": false,
          "internalType": "string",
          "name": "comment",
          "type": "string"
        }
      ],
      "name": "ReviewAdded",
      "type": "event"
    },
    {
      "anonymous": false,
      "inputs": [
        {
          "indexed": true,
          "internalType": "uint256",
          "name": "productId",
          "type": "uint256"
        },
        {
          "indexed": true,
          "internalType": "uint256",
          "name": "reviewIndex",
          "type": "uint256"
        },
        {
          "indexed": true,
          "internalType": "address",
          "name": "liker",
          "type": "address"
        },
        {
          "indexed": false,
          "internalType": "uint256",
          "name": "likes",
          "type": "uint256"
        }
      ],
      "name": "ReviewLiked",
      "type": "event"
    },
    {
      "inputs": [
        {
          "internalType": "uint256",
          "name": "productId",
          "type": "uint256"
        },
        {
          "internalType": "uint8",
          "name": "rating",
          "type": "uint8"
        },
        {
          "internalType": "string",
          "name": "comment",
          "type": "string"
        },
        {
          "internalType": "address",
          "name": "user",
          "type": "address"
        }
      ],
      "name": "addReview",
      "outputs": [],
      "stateMutability": "nonpayable",
      "type": "function"
    },
    {
      "inputs": [
        {
          "internalType": "uint256",
          "name": "id",
          "type": "uint256"
        },
        {
          "internalType": "address",
          "name": "buyer",
          "type": "address"
        }
      ],
      "name": "buyProperty",
      "outputs": [],
      "stateMutability": "payable",
      "type": "function"
    },
    {
      "inputs": [],
      "name": "getAllProperties",
      "outputs": [
        {
          "components": [
            {
              "internalType": "uint256",
              "name": "productID",
              "type": "uint256"
            },
            {
              "internalType": "address",
              "name": "owner",
              "type": "address"
            },
            {
              "internalType": "uint256",
              "name": "price",
              "type": "uint256"
            },
            {
              "internalType": "string",
              "name": "propertyTitle",
              "type": "string"
            },
            {
              "internalType": "string",
              "name": "category",
              "type": "string"
            },
            {
              "internalType": "string",
              "name": "images",
              "type": "string"
            },
            {
              "internalType": "string",
              "name": "propertyAddress",
              "type": "string"
            },
            {
              "internalType": "string",
              "name": "description",
              "type": "string"
            },
            {
              "internalType": "address[]",
              "name": "reviewers",
              "type": "address[]"
            },
            {
              "internalType": "string[]",
              "name": "reviews",
              "type": "string[]"
            }
          ],
          "internalType": "struct RealEstate.Property[]",
          "name": "",
          "type": "tuple[]"
        }
      ],
      "stateMutability": "view",
      "type": "function"
    },
    {
      "inputs": [],
      "name": "getHighestRatedProduct",
      "outputs": [
        {
          "internalType": "uint256",
          "name": "",
          "type": "uint256"
        }
      ],
      "stateMutability": "view",
      "type": "function"
    },
    {
      "inputs": [],
      "name": "getListingPrice",
      "outputs": [
        {
          "internalType": "uint256",
          "name": "",
          "type": "uint256"
        }
      ],
      "stateMutability": "view",
      "type": "function"
    },
    {
      "inputs": [
        {
          "internalType": "uint256",
          "name": "productId",
          "type": "uint256"
        }
      ],
      "name": "getProductReviews",
      "outputs": [
        {
          "components": [
            {
              "internalType": "address",
              "name": "reviewer",
              "type": "address"
            },
            {
              "internalType": "uint256",
              "name": "productId",
              "type": "uint256"
            },
            {
              "internalType": "uint8",
              "name": "rating",
              "type": "uint8"
            },
            {
              "internalType": "string",
              "name": "comment",
              "type": "string"
            },
            {
              "internalType": "uint256",
              "name": "likes",
              "type": "uint256"
            },
            {
              "internalType": "uint256",
              "name": "reviewIndex",
              "type": "uint256"
            }
          ],
          "internalType": "struct RealEstate.Review[]",
          "name": "",
          "type": "tuple[]"
        }
      ],
      "stateMutability": "view",
      "type": "function"
    },
    {
      "inputs": [
        {
          "internalType": "uint256",
          "name": "id",
          "type": "uint256"
        }
      ],
      "name": "getProperty",
      "outputs": [
        {
          "internalType": "uint256",
          "name": "",
          "type": "uint256"
        },
        {
          "internalType": "address",
          "name": "",
          "type": "address"
        },
        {
          "internalType": "uint256",
          "name": "",
          "type": "uint256"
        },
        {
          "internalType": "string",
          "name": "",
          "type": "string"
        },
        {
          "internalType": "string",
          "name": "",
          "type": "string"
        },
        {
          "internalType": "string",
          "name": "",
          "type": "string"
        },
        {
          "internalType": "string",
          "name": "",
          "type": "string"
        },
        {
          "internalType": "string",
          "name": "",
          "type": "string"
        },
        {
          "internalType": "address[]",
          "name": "",
          "type": "address[]"
        },
        {
          "internalType": "string[]",
          "name": "",
          "type": "string[]"
        }
      ],
      "stateMutability": "view",
      "type": "function"
    },
    {
      "inputs": [
        {
          "internalType": "address",
          "name": "user",
          "type": "address"
        }
      ],
      "name": "getUserProperties",
      "outputs": [
        {
          "components": [
            {
              "internalType": "uint256",
              "name": "productID",
              "type": "uint256"
            },
            {
              "internalType": "address",
              "name": "owner",
              "type": "address"
            },
            {
              "internalType": "uint256",
              "name": "price",
              "type": "uint256"
            },
            {
              "internalType": "string",
              "name": "propertyTitle",
              "type": "string"
            },
            {
              "internalType": "string",
              "name": "category",
              "type": "string"
            },
            {
              "internalType": "string",
              "name": "images",
              "type": "string"
            },
            {
              "internalType": "string",
              "name": "propertyAddress",
              "type": "string"
            },
            {
              "internalType": "string",
              "name": "description",
              "type": "string"
            },
            {
              "internalType": "address[]",
              "name": "reviewers",
              "type": "address[]"
            },
            {
              "internalType": "string[]",
              "name": "reviews",
              "type": "string[]"
            }
          ],
          "internalType": "struct RealEstate.Property[]",
          "name": "",
          "type": "tuple[]"
        }
      ],
      "stateMutability": "view",
      "type": "function"
    },
    {
      "inputs": [
        {
          "internalType": "address",
          "name": "user",
          "type": "address"
        }
      ],
      "name": "getUserReviews",
      "outputs": [
        {
          "components": [
            {
              "internalType": "address",
              "name": "reviewer",
              "type": "address"
            },
            {
              "internalType": "uint256",
              "name": "productId",
              "type": "uint256"
            },
            {
              "internalType": "uint8",
              "name": "rating",
              "type": "uint8"
            },
            {
              "internalType": "string",
              "name": "comment",
              "type": "string"
            },
            {
              "internalType": "uint256",
              "name": "likes",
              "type": "uint256"
            },
            {
              "internalType": "uint256",
              "name": "reviewIndex",
              "type": "uint256"
            }
          ],
          "internalType": "struct RealEstate.Review[]",
          "name": "",
          "type": "tuple[]"
        }
      ],
      "stateMutability": "view",
      "type": "function"
    },
    {
      "inputs": [
        {
          "internalType": "uint256",
          "name": "productId",
          "type": "uint256"
        },
        {
          "internalType": "uint256",
          "name": "reviewIndex",
          "type": "uint256"
        },
        {
          "internalType": "address",
          "name": "user",
          "type": "address"
        }
      ],
      "name": "likeReview",
      "outputs": [],
      "stateMutability": "nonpayable",
      "type": "function"
    },
    {
      "inputs": [
        {
          "internalType": "address",
          "name": "owner",
          "type": "address"
        },
        {
          "internalType": "uint256",
          "name": "price",
          "type": "uint256"
        },
        {
          "internalType": "string",
          "name": "_propertyTitle",
          "type": "string"
        },
        {
          "internalType": "string",
          "name": "_category",
          "type": "string"
        },
        {
          "internalType": "string",
          "name": "_images",
          "type": "string"
        },
        {
          "internalType": "string",
          "name": "_propertyAddress",
          "type": "string"
        },
        {
          "internalType": "string",
          "name": "_description",
          "type": "string"
        }
      ],
      "name": "listProperty",
      "outputs": [
        {
          "internalType": "uint256",
          "name": "",
          "type": "uint256"
        },
        {
          "internalType": "string",
          "name": "",
          "type": "string"
        },
        {
          "internalType": "string",
          "name": "",
          "type": "string"
        },
        {
          "internalType": "string",
          "name": "",
          "type": "string"
        },
        {
          "internalType": "string",
          "name": "",
          "type": "string"
        }
      ],
      "stateMutability": "nonpayable",
      "type": "function"
    },
    {
      "inputs": [],
      "name": "listingPrice",
      "outputs": [
        {
          "internalType": "uint256",
          "name": "",
          "type": "uint256"
        }
      ],
      "stateMutability": "view",
      "type": "function"
    },
    {
      "inputs": [],
      "name": "propertyIndex",
      "outputs": [
        {
          "internalType": "uint256",
          "name": "",
          "type": "uint256"
        }
      ],
      "stateMutability": "view",
      "type": "function"
    },
    {
      "inputs": [],
      "name": "reviewsCounter",
      "outputs": [
        {
          "internalType": "uint256",
          "name": "",
          "type": "uint256"
        }
      ],
      "stateMutability": "view",
      "type": "function"
    },
    {
      "inputs": [
        {
          "internalType": "uint256",
          "name": "_listingPrice",
          "type": "uint256"
        },
        {
          "internalType": "address",
          "name": "owner",
          "type": "address"
        }
      ],
      "name": "updateListingPrice",
      "outputs": [],
      "stateMutability": "payable",
      "type": "function"
    },
    {
      "inputs": [
        {
          "internalType": "address",
          "name": "owner",
          "type": "address"
        },
        {
          "internalType": "uint256",
          "name": "productId",
          "type": "uint256"
        },
        {
          "internalType": "uint256",
          "name": "price",
          "type": "uint256"
        }
      ],
      "name": "updatePrice",
      "outputs": [
        {
          "internalType": "string",
          "name": "",
          "type": "string"
        }
      ],
      "stateMutability": "nonpayable",
      "type": "function"
    },
    {
      "inputs": [
        {
          "internalType": "address",
          "name": "owner",
          "type": "address"
        },
        {
          "internalType": "uint256",
          "name": "productId",
          "type": "uint256"
        },
        {
          "internalType": "string",
          "name": "_propertyTitle",
          "type": "string"
        },
        {
          "internalType": "string",
          "name": "_category",
          "type": "string"
        },
        {
          "internalType": "string",
          "name": "_images",
          "type": "string"
        },
        {
          "internalType": "string",
          "name": "_propertyAddress",
          "type": "string"
        },
        {
          "internalType": "string",
          "name": "_description",
          "type": "string"
        }
      ],
      "name": "updateProperty",
      "outputs": [
        {
          "internalType": "uint256",
          "name": "",
          "type": "uint256"
        },
        {
          "internalType": "string",
          "name": "",
          "type": "string"
        },
        {
          "internalType": "string",
          "name": "",
          "type": "string"
        },
        {
          "internalType": "string",
          "name": "",
          "type": "string"
        },
        {
          "internalType": "string",
          "name": "",
          "type": "string"
        },
        {
          "internalType": "string",
          "name": "",
          "type": "string"
        }
      ],
      "stateMutability": "nonpayable",
      "type": "function"
    }
  ],
  "bytecode": "0x608060405273b309098bcb51e5c687a16fa41bd6055f47c9ebb06000806101000a81548173ffffffffffffffffffffffffffffffffffffffff021916908373ffffffffffffffffffffffffffffffffffffffff1602179055506658d15e1762800060015534801561006f57600080fd5b50613eaf8061007f6000396000f3fe6080604052600436106100fe5760003560e01c806380cad5a611610095578063c78f19f911610064578063c78f19f914610367578063dc035e6d14610392578063e2fc6b95146103bb578063e57d6fb7146103e4578063f56720b514610421576100fe565b806380cad5a6146102d9578063844ce562146102f55780639e92a69414610320578063a3007b1f1461033c576100fe565b80633b3bfa15116100d15780633b3bfa15146101ee5780633d51402c1461023057806346a4237b1461025b5780637078930814610298576100fe565b8063060a3e611461010357806312e855851461014057806318d0e8b21461016b57806332665ffb146101a8575b600080fd5b34801561010f57600080fd5b5061012a60048036038101906101259190612827565b61044c565b6040516101379190612c43565b60405180910390f35b34801561014c57600080fd5b50610155610b04565b6040516101629190612c74565b60405180910390f35b34801561017757600080fd5b50610192600480360381019061018d9190612827565b610b0e565b60405161019f9190612df6565b60405180910390f35b3480156101b457600080fd5b506101cf60048036038101906101ca9190612e44565b610eb7565b6040516101e59a99989796959493929190612fbf565b60405180910390f35b3480156101fa57600080fd5b50610215600480360381019061021091906131c1565b6113eb565b604051610227969594939291906132ef565b60405180910390f35b34801561023c57600080fd5b5061024561151b565b6040516102529190612c43565b60405180910390f35b34801561026757600080fd5b50610282600480360381019061027d9190612e44565b611ab4565b60405161028f9190612df6565b60405180910390f35b3480156102a457600080fd5b506102bf60048036038101906102ba91906131c1565b611c49565b6040516102d0959493929190613373565b60405180910390f35b6102f360048036038101906102ee91906133e2565b611de8565b005b34801561030157600080fd5b5061030a611f0f565b6040516103179190612c74565b60405180910390f35b61033a600480360381019061033591906133e2565b611f15565b005b34801561034857600080fd5b506103516120f4565b60405161035e9190612c74565b60405180910390f35b34801561037357600080fd5b5061037c6121a3565b6040516103899190612c74565b60405180910390f35b34801561039e57600080fd5b506103b960048036038101906103b49190613422565b6121a9565b005b3480156103c757600080fd5b506103e260048036038101906103dd9190613501565b612254565b005b3480156103f057600080fd5b5061040b60048036038101906104069190613589565b612603565b60405161041891906135dc565b60405180910390f35b34801561042d57600080fd5b506104366126f7565b6040516104439190612c74565b60405180910390f35b60606000600354905060008060005b838110156104fb578573ffffffffffffffffffffffffffffffffffffffff166002600060018461048b919061362d565b815260200190815260200160002060010160009054906101000a900473ffffffffffffffffffffffffffffffffffffffff1673ffffffffffffffffffffffffffffffffffffffff16036104e8576001836104e5919061362d565b92505b80806104f390613661565b91505061045b565b5060008267ffffffffffffffff81111561051857610517613096565b5b60405190808252806020026020018201604052801561055157816020015b61053e6126fd565b8152602001906001900390816105365790505b50905060005b84811015610af7578673ffffffffffffffffffffffffffffffffffffffff1660026000600184610587919061362d565b815260200190815260200160002060010160009054906101000a900473ffffffffffffffffffffffffffffffffffffffff1673ffffffffffffffffffffffffffffffffffffffff1603610ae45760006001826105e3919061362d565b905060006002600083815260200190815260200160002090508060405180610140016040529081600082015481526020016001820160009054906101000a900473ffffffffffffffffffffffffffffffffffffffff1673ffffffffffffffffffffffffffffffffffffffff1673ffffffffffffffffffffffffffffffffffffffff16815260200160028201548152602001600382018054610683906136d8565b80601f01602080910402602001604051908101604052809291908181526020018280546106af906136d8565b80156106fc5780601f106106d1576101008083540402835291602001916106fc565b820191906000526020600020905b8154815290600101906020018083116106df57829003601f168201915b50505050508152602001600482018054610715906136d8565b80601f0160208091040260200160405190810160405280929190818152602001828054610741906136d8565b801561078e5780601f106107635761010080835404028352916020019161078e565b820191906000526020600020905b81548152906001019060200180831161077157829003601f168201915b505050505081526020016005820180546107a7906136d8565b80601f01602080910402602001604051908101604052809291908181526020018280546107d3906136d8565b80156108205780601f106107f557610100808354040283529160200191610820565b820191906000526020600020905b81548152906001019060200180831161080357829003601f168201915b50505050508152602001600682018054610839906136d8565b80601f0160208091040260200160405190810160405280929190818152602001828054610865906136d8565b80156108b25780601f10610887576101008083540402835291602001916108b2565b820191906000526020600020905b81548152906001019060200180831161089557829003601f168201915b505050505081526020016007820180546108cb906136d8565b80601f01602080910402602001604051908101604052809291908181526020018280546108f7906136d8565b80156109445780601f1061091957610100808354040283529160200191610944565b820191906000526020600020905b81548152906001019060200180831161092757829003601f168201915b50505050508152602001600882018054806020026020016040519081016040528092919081815260200182805480156109d257602002820191906000526020600020905b8160009054906101000a900473ffffffffffffffffffffffffffffffffffffffff1673ffffffffffffffffffffffffffffffffffffffff1681526020019060010190808311610988575b5050505050815260200160098201805480602002602001604051908101604052809291908181526020016000905b82821015610aac578382906000526020600020018054610a1f906136d8565b80601f0160208091040260200160405190810160405280929190818152602001828054610a4b906136d8565b8015610a985780601f10610a6d57610100808354040283529160200191610a98565b820191906000526020600020905b815481529060010190602001808311610a7b57829003601f168201915b505050505081526020019060010190610a00565b5050505081525050848681518110610ac757610ac6613709565b5b6020026020010181905250600185610adf919061362d565b945050505b8080610aef90613661565b915050610557565b5080945050505050919050565b6000600154905090565b60606000600560008473ffffffffffffffffffffffffffffffffffffffff1673ffffffffffffffffffffffffffffffffffffffff16815260200190815260200160002080549050905060008167ffffffffffffffff811115610b7357610b72613096565b5b604051908082528060200260200182016040528015610bac57816020015b610b99612766565b815260200190600190039081610b915790505b50905060005b600560008673ffffffffffffffffffffffffffffffffffffffff1673ffffffffffffffffffffffffffffffffffffffff16815260200190815260200160002080549050811015610eac576000600560008773ffffffffffffffffffffffffffffffffffffffff1673ffffffffffffffffffffffffffffffffffffffff1681526020019081526020016000208281548110610c4f57610c4e613709565b5b90600052602060002001549050600060046000838152602001908152602001600020805480602002602001604051908101604052809291908181526020016000905b82821015610de657838290600052602060002090600602016040518060c00160405290816000820160009054906101000a900473ffffffffffffffffffffffffffffffffffffffff1673ffffffffffffffffffffffffffffffffffffffff1673ffffffffffffffffffffffffffffffffffffffff168152602001600182015481526020016002820160009054906101000a900460ff1660ff1660ff168152602001600382018054610d41906136d8565b80601f0160208091040260200160405190810160405280929190818152602001828054610d6d906136d8565b8015610dba5780601f10610d8f57610100808354040283529160200191610dba565b820191906000526020600020905b815481529060010190602001808311610d9d57829003601f168201915b505050505081526020016004820154815260200160058201548152505081526020019060010190610c91565b50505050905060005b8151811015610e96578773ffffffffffffffffffffffffffffffffffffffff16828281518110610e2257610e21613709565b5b60200260200101516000015173ffffffffffffffffffffffffffffffffffffffff1603610e8357818181518110610e5c57610e5b613709565b5b6020026020010151858581518110610e7757610e76613709565b5b60200260200101819052505b8080610e8e90613661565b915050610def565b5050508080610ea490613661565b915050610bb2565b508092505050919050565b600080600060608060608060608060606000600260008d815260200190815260200160002060405180610140016040529081600082015481526020016001820160009054906101000a900473ffffffffffffffffffffffffffffffffffffffff1673ffffffffffffffffffffffffffffffffffffffff1673ffffffffffffffffffffffffffffffffffffffff16815260200160028201548152602001600382018054610f62906136d8565b80601f0160208091040260200160405190810160405280929190818152602001828054610f8e906136d8565b8015610fdb5780601f10610fb057610100808354040283529160200191610fdb565b820191906000526020600020905b815481529060010190602001808311610fbe57829003601f168201915b50505050508152602001600482018054610ff4906136d8565b80601f0160208091040260200160405190810160405280929190818152602001828054611020906136d8565b801561106d5780601f106110425761010080835404028352916020019161106d565b820191906000526020600020905b81548152906001019060200180831161105057829003601f168201915b50505050508152602001600582018054611086906136d8565b80601f01602080910402602001604051908101604052809291908181526020018280546110b2906136d8565b80156110ff5780601f106110d4576101008083540402835291602001916110ff565b820191906000526020600020905b8154815290600101906020018083116110e257829003601f168201915b50505050508152602001600682018054611118906136d8565b80601f0160208091040260200160405190810160405280929190818152602001828054611144906136d8565b80156111915780601f1061116657610100808354040283529160200191611191565b820191906000526020600020905b81548152906001019060200180831161117457829003601f168201915b505050505081526020016007820180546111aa906136d8565b80601f01602080910402602001604051908101604052809291908181526020018280546111d6906136d8565b80156112235780601f106111f857610100808354040283529160200191611223565b820191906000526020600020905b81548152906001019060200180831161120657829003601f168201915b50505050508152602001600882018054806020026020016040519081016040528092919081815260200182805480156112b157602002820191906000526020600020905b8160009054906101000a900473ffffffffffffffffffffffffffffffffffffffff1673ffffffffffffffffffffffffffffffffffffffff1681526020019060010190808311611267575b5050505050815260200160098201805480602002602001604051908101604052809291908181526020016000905b8282101561138b5783829060005260206000200180546112fe906136d8565b80601f016020809104026020016040519081016040528092919081815260200182805461132a906136d8565b80156113775780601f1061134c57610100808354040283529160200191611377565b820191906000526020600020905b81548152906001019060200180831161135a57829003601f168201915b5050505050815260200190600101906112df565b50505050815250509050806000015181602001518260400151836060015184608001518560a001518660c001518760e001518861010001518961012001519a509a509a509a509a509a509a509a509a509a50509193959799509193959799565b600060608060608060606000600260008e815260200190815260200160002090508d73ffffffffffffffffffffffffffffffffffffffff168160010160009054906101000a900473ffffffffffffffffffffffffffffffffffffffff1673ffffffffffffffffffffffffffffffffffffffff161461149e576040517f08c379a000000000000000000000000000000000000000000000000000000000815260040161149590613784565b60405180910390fd5b8b8160030190816114af9190613950565b508a8160040190816114c19190613950565b50898160050190816114d39190613950565b50888160060190816114e59190613950565b50878160070190816114f79190613950565b508c8c898c8e8d965096509650965096509650509750975097509750975097915050565b6060600060035490506000808267ffffffffffffffff81111561154157611540613096565b5b60405190808252806020026020018201604052801561157a57816020015b6115676126fd565b81526020019060019003908161155f5790505b50905060005b83811015611aaa576000600182611597919061362d565b905060006002600083815260200190815260200160002090508060405180610140016040529081600082015481526020016001820160009054906101000a900473ffffffffffffffffffffffffffffffffffffffff1673ffffffffffffffffffffffffffffffffffffffff1673ffffffffffffffffffffffffffffffffffffffff16815260200160028201548152602001600382018054611637906136d8565b80601f0160208091040260200160405190810160405280929190818152602001828054611663906136d8565b80156116b05780601f10611685576101008083540402835291602001916116b0565b820191906000526020600020905b81548152906001019060200180831161169357829003601f168201915b505050505081526020016004820180546116c9906136d8565b80601f01602080910402602001604051908101604052809291908181526020018280546116f5906136d8565b80156117425780601f1061171757610100808354040283529160200191611742565b820191906000526020600020905b81548152906001019060200180831161172557829003601f168201915b5050505050815260200160058201805461175b906136d8565b80601f0160208091040260200160405190810160405280929190818152602001828054611787906136d8565b80156117d45780601f106117a9576101008083540402835291602001916117d4565b820191906000526020600020905b8154815290600101906020018083116117b757829003601f168201915b505050505081526020016006820180546117ed906136d8565b80601f0160208091040260200160405190810160405280929190818152602001828054611819906136d8565b80156118665780601f1061183b57610100808354040283529160200191611866565b820191906000526020600020905b81548152906001019060200180831161184957829003601f168201915b5050505050815260200160078201805461187f906136d8565b80601f01602080910402602001604051908101604052809291908181526020018280546118ab906136d8565b80156118f85780601f106118cd576101008083540402835291602001916118f8565b820191906000526020600020905b8154815290600101906020018083116118db57829003601f168201915b505050505081526020016008820180548060200260200160405190810160405280929190818152602001828054801561198657602002820191906000526020600020905b8160009054906101000a900473ffffffffffffffffffffffffffffffffffffffff1673ffffffffffffffffffffffffffffffffffffffff168152602001906001019080831161193c575b5050505050815260200160098201805480602002602001604051908101604052809291908181526020016000905b82821015611a605783829060005260206000200180546119d3906136d8565b80601f01602080910402602001604051908101604052809291908181526020018280546119ff906136d8565b8015611a4c5780601f10611a2157610100808354040283529160200191611a4c565b820191906000526020600020905b815481529060010190602001808311611a2f57829003601f168201915b5050505050815260200190600101906119b4565b5050505081525050848681518110611a7b57611a7a613709565b5b6020026020010181905250600185611a93919061362d565b945050508080611aa290613661565b915050611580565b5080935050505090565b606060046000838152602001908152602001600020805480602002602001604051908101604052809291908181526020016000905b82821015611c3e57838290600052602060002090600602016040518060c00160405290816000820160009054906101000a900473ffffffffffffffffffffffffffffffffffffffff1673ffffffffffffffffffffffffffffffffffffffff1673ffffffffffffffffffffffffffffffffffffffff168152602001600182015481526020016002820160009054906101000a900460ff1660ff1660ff168152602001600382018054611b99906136d8565b80601f0160208091040260200160405190810160405280929190818152602001828054611bc5906136d8565b8015611c125780601f10611be757610100808354040283529160200191611c12565b820191906000526020600020905b815481529060010190602001808311611bf557829003601f168201915b505050505081526020016004820154815260200160058201548152505081526020019060010190611ae9565b505050509050919050565b600060608060608060008b11611c94576040517f08c379a0000000000000000000000000000000000000000000000000000000008152600401611c8b90613a6e565b60405180910390fd5b60036000815480929190611ca790613661565b91905055506000600354905060006002600083815260200190815260200160002090508181600001819055508d8160010160006101000a81548173ffffffffffffffffffffffffffffffffffffffff021916908373ffffffffffffffffffffffffffffffffffffffff1602179055508c81600201819055508b816003019081611d309190613950565b508a816004019081611d429190613950565b5089816005019081611d549190613950565b5088816006019081611d669190613950565b5087816007019081611d789190613950565b508d73ffffffffffffffffffffffffffffffffffffffff16827f23fb658c1698b92f5fe511a079c17ecf7965cbc3f1b873328c67e2c3c0820f1f8f604051611dc09190612c74565b60405180910390a3818c898c8e96509650965096509650505097509750975097509792505050565b60008054906101000a900473ffffffffffffffffffffffffffffffffffffffff1673ffffffffffffffffffffffffffffffffffffffff163373ffffffffffffffffffffffffffffffffffffffff1614611e76576040517f08c379a0000000000000000000000000000000000000000000000000000000008152600401611e6d90613b00565b60405180910390fd5b8073ffffffffffffffffffffffffffffffffffffffff1660008054906101000a900473ffffffffffffffffffffffffffffffffffffffff1673ffffffffffffffffffffffffffffffffffffffff1614611f04576040517f08c379a0000000000000000000000000000000000000000000000000000000008152600401611efb90613b92565b60405180910390fd5b816001819055505050565b60075481565b600034905060026000848152602001908152602001600020600201548114611f72576040517f08c379a0000000000000000000000000000000000000000000000000000000008152600401611f6990613bfe565b60405180910390fd5b600060026000858152602001908152602001600020905060008160010160009054906101000a900473ffffffffffffffffffffffffffffffffffffffff1673ffffffffffffffffffffffffffffffffffffffff1683604051611fd390613c4f565b60006040518083038185875af1925050503d8060008114612010576040519150601f19603f3d011682016040523d82523d6000602084013e612015565b606091505b5050905080156120ed57838260010160006101000a81548173ffffffffffffffffffffffffffffffffffffffff021916908373ffffffffffffffffffffffffffffffffffffffff1602179055508373ffffffffffffffffffffffffffffffffffffffff168260010160009054906101000a900473ffffffffffffffffffffffffffffffffffffffff1673ffffffffffffffffffffffffffffffffffffffff16867fddd64180d9701c7ede08673ac8106484ff983a472929330d4fbde4e35d65cb06866040516120e49190612c74565b60405180910390a45b5050505050565b600080600090506000805b60075481101561219a576000600182612118919061362d565b9050600060066000838152602001908152602001600020600201541115612186576000600660008381526020019081526020016000206002015460066000848152602001908152602001600020600101546121739190613c93565b905084811115612184578094508193505b505b50808061219290613661565b9150506120ff565b50809250505090565b60015481565b60006004600085815260200190815260200160002083815481106121d0576121cf613709565b5b906000526020600020906006020190508060040160008154809291906121f590613661565b91905055508173ffffffffffffffffffffffffffffffffffffffff1683857fc58deae63c2d94e1502a392380f59901dc4cd3c3bbc40308b6189decf09671d584600401546040516122469190612c74565b60405180910390a450505050565b60018460ff161015801561226c575060058460ff1611155b6122ab576040517f08c379a00000000000000000000000000000000000000000000000000000000081526004016122a290613d10565b60405180910390fd5b600060026000878152602001908152602001600020905080600801829080600181540180825580915050600190039060005260206000200160009091909190916101000a81548173ffffffffffffffffffffffffffffffffffffffff021916908373ffffffffffffffffffffffffffffffffffffffff16021790555080600901848490918060018154018082558091505060019003906000526020600020016000909192909192909192909192509182612366929190613d3b565b50600460008781526020019081526020016000206040518060c001604052808473ffffffffffffffffffffffffffffffffffffffff1681526020018881526020018760ff16815260200186868080601f016020809104026020016040519081016040528093929190818152602001838380828437600081840152601f19601f82011690508083019250505050505050815260200160008152602001600754815250908060018154018082558091505060019003906000526020600020906006020160009091909190915060008201518160000160006101000a81548173ffffffffffffffffffffffffffffffffffffffff021916908373ffffffffffffffffffffffffffffffffffffffff1602179055506020820151816001015560408201518160020160006101000a81548160ff021916908360ff16021790555060608201518160030190816124b79190613950565b506080820151816004015560a082015181600501555050600560008373ffffffffffffffffffffffffffffffffffffffff1673ffffffffffffffffffffffffffffffffffffffff1681526020019081526020016000208690806001815401808255809150506001900390600052602060002001600090919091909150558460ff1660066000888152602001908152602001600020600101600082825461255d919061362d565b9250508190555060066000878152602001908152602001600020600201600081548092919061258b90613661565b91905055508173ffffffffffffffffffffffffffffffffffffffff16867f4a7905ef60a1bc6706f11a56f05a4ebb480a37effdcaaba357946727b7aa07438787876040516125db93929190613e47565b60405180910390a3600760008154809291906125f690613661565b9190505550505050505050565b606060006002600085815260200190815260200160002090508473ffffffffffffffffffffffffffffffffffffffff168160010160009054906101000a900473ffffffffffffffffffffffffffffffffffffffff1673ffffffffffffffffffffffffffffffffffffffff16146126ae576040517f08c379a00000000000000000000000000000000000000000000000000000000081526004016126a590613784565b60405180910390fd5b8281600201819055506040518060400160405280601e81526020017f596f75722050726f7065727479205072696365204973205570646174656400008152509150509392505050565b60035481565b60405180610140016040528060008152602001600073ffffffffffffffffffffffffffffffffffffffff16815260200160008152602001606081526020016060815260200160608152602001606081526020016060815260200160608152602001606081525090565b6040518060c00160405280600073ffffffffffffffffffffffffffffffffffffffff16815260200160008152602001600060ff1681526020016060815260200160008152602001600081525090565b6000604051905090565b600080fd5b600080fd5b600073ffffffffffffffffffffffffffffffffffffffff82169050919050565b60006127f4826127c9565b9050919050565b612804816127e9565b811461280f57600080fd5b50565b600081359050612821816127fb565b92915050565b60006020828403121561283d5761283c6127bf565b5b600061284b84828501612812565b91505092915050565b600081519050919050565b600082825260208201905092915050565b6000819050602082019050919050565b6000819050919050565b61289381612880565b82525050565b6128a2816127e9565b82525050565b600081519050919050565b600082825260208201905092915050565b60005b838110156128e25780820151818401526020810190506128c7565b60008484015250505050565b6000601f19601f8301169050919050565b600061290a826128a8565b61291481856128b3565b93506129248185602086016128c4565b61292d816128ee565b840191505092915050565b600081519050919050565b600082825260208201905092915050565b6000819050602082019050919050565b60006129708383612899565b60208301905092915050565b6000602082019050919050565b600061299482612938565b61299e8185612943565b93506129a983612954565b8060005b838110156129da5781516129c18882612964565b97506129cc8361297c565b9250506001810190506129ad565b5085935050505092915050565b600081519050919050565b600082825260208201905092915050565b6000819050602082019050919050565b6000612a1f83836128ff565b905092915050565b6000602082019050919050565b6000612a3f826129e7565b612a4981856129f2565b935083602082028501612a5b85612a03565b8060005b85811015612a975784840389528151612a788582612a13565b9450612a8383612a27565b925060208a01995050600181019050612a5f565b50829750879550505050505092915050565b600061014083016000830151612ac2600086018261288a565b506020830151612ad56020860182612899565b506040830151612ae8604086018261288a565b5060608301518482036060860152612b0082826128ff565b91505060808301518482036080860152612b1a82826128ff565b91505060a083015184820360a0860152612b3482826128ff565b91505060c083015184820360c0860152612b4e82826128ff565b91505060e083015184820360e0860152612b6882826128ff565b915050610100830151848203610100860152612b848282612989565b915050610120830151848203610120860152612ba08282612a34565b9150508091505092915050565b6000612bb98383612aa9565b905092915050565b6000602082019050919050565b6000612bd982612854565b612be3818561285f565b935083602082028501612bf585612870565b8060005b85811015612c315784840389528151612c128582612bad565b9450612c1d83612bc1565b925060208a01995050600181019050612bf9565b50829750879550505050505092915050565b60006020820190508181036000830152612c5d8184612bce565b905092915050565b612c6e81612880565b82525050565b6000602082019050612c896000830184612c65565b92915050565b600081519050919050565b600082825260208201905092915050565b6000819050602082019050919050565b600060ff82169050919050565b612cd181612cbb565b82525050565b600060c083016000830151612cef6000860182612899565b506020830151612d02602086018261288a565b506040830151612d156040860182612cc8565b5060608301518482036060860152612d2d82826128ff565b9150506080830151612d42608086018261288a565b5060a0830151612d5560a086018261288a565b508091505092915050565b6000612d6c8383612cd7565b905092915050565b6000602082019050919050565b6000612d8c82612c8f565b612d968185612c9a565b935083602082028501612da885612cab565b8060005b85811015612de45784840389528151612dc58582612d60565b9450612dd083612d74565b925060208a01995050600181019050612dac565b50829750879550505050505092915050565b60006020820190508181036000830152612e108184612d81565b905092915050565b612e2181612880565b8114612e2c57600080fd5b50565b600081359050612e3e81612e18565b92915050565b600060208284031215612e5a57612e596127bf565b5b6000612e6884828501612e2f565b91505092915050565b612e7a816127e9565b82525050565b600082825260208201905092915050565b6000612e9c826128a8565b612ea68185612e80565b9350612eb68185602086016128c4565b612ebf816128ee565b840191505092915050565b600082825260208201905092915050565b6000612ee682612938565b612ef08185612eca565b9350612efb83612954565b8060005b83811015612f2c578151612f138882612964565b9750612f1e8361297c565b925050600181019050612eff565b5085935050505092915050565b600082825260208201905092915050565b6000612f55826129e7565b612f5f8185612f39565b935083602082028501612f7185612a03565b8060005b85811015612fad5784840389528151612f8e8582612a13565b9450612f9983612a27565b925060208a01995050600181019050612f75565b50829750879550505050505092915050565b600061014082019050612fd5600083018d612c65565b612fe2602083018c612e71565b612fef604083018b612c65565b8181036060830152613001818a612e91565b905081810360808301526130158189612e91565b905081810360a08301526130298188612e91565b905081810360c083015261303d8187612e91565b905081810360e08301526130518186612e91565b90508181036101008301526130668185612edb565b905081810361012083015261307b8184612f4a565b90509b9a5050505050505050505050565b600080fd5b600080fd5b7f4e487b7100000000000000000000000000000000000000000000000000000000600052604160045260246000fd5b6130ce826128ee565b810181811067ffffffffffffffff821117156130ed576130ec613096565b5b80604052505050565b60006131006127b5565b905061310c82826130c5565b919050565b600067ffffffffffffffff82111561312c5761312b613096565b5b613135826128ee565b9050602081019050919050565b82818337600083830152505050565b600061316461315f84613111565b6130f6565b9050828152602081018484840111156131805761317f613091565b5b61318b848285613142565b509392505050565b600082601f8301126131a8576131a761308c565b5b81356131b8848260208601613151565b91505092915050565b600080600080600080600060e0888a0312156131e0576131df6127bf565b5b60006131ee8a828b01612812565b97505060206131ff8a828b01612e2f565b965050604088013567ffffffffffffffff8111156132205761321f6127c4565b5b61322c8a828b01613193565b955050606088013567ffffffffffffffff81111561324d5761324c6127c4565b5b6132598a828b01613193565b945050608088013567ffffffffffffffff81111561327a576132796127c4565b5b6132868a828b01613193565b93505060a088013567ffffffffffffffff8111156132a7576132a66127c4565b5b6132b38a828b01613193565b92505060c088013567ffffffffffffffff8111156132d4576132d36127c4565b5b6132e08a828b01613193565b91505092959891949750929550565b600060c0820190506133046000830189612c65565b81810360208301526133168188612e91565b9050818103604083015261332a8187612e91565b9050818103606083015261333e8186612e91565b905081810360808301526133528185612e91565b905081810360a08301526133668184612e91565b9050979650505050505050565b600060a0820190506133886000830188612c65565b818103602083015261339a8187612e91565b905081810360408301526133ae8186612e91565b905081810360608301526133c28185612e91565b905081810360808301526133d68184612e91565b90509695505050505050565b600080604083850312156133f9576133f86127bf565b5b600061340785828601612e2f565b925050602061341885828601612812565b9150509250929050565b60008060006060848603121561343b5761343a6127bf565b5b600061344986828701612e2f565b935050602061345a86828701612e2f565b925050604061346b86828701612812565b9150509250925092565b61347e81612cbb565b811461348957600080fd5b50565b60008135905061349b81613475565b92915050565b600080fd5b600080fd5b60008083601f8401126134c1576134c061308c565b5b8235905067ffffffffffffffff8111156134de576134dd6134a1565b5b6020830191508360018202830111156134fa576134f96134a6565b5b9250929050565b60008060008060006080868803121561351d5761351c6127bf565b5b600061352b88828901612e2f565b955050602061353c8882890161348c565b945050604086013567ffffffffffffffff81111561355d5761355c6127c4565b5b613569888289016134ab565b9350935050606061357c88828901612812565b9150509295509295909350565b6000806000606084860312156135a2576135a16127bf565b5b60006135b086828701612812565b93505060206135c186828701612e2f565b92505060406135d286828701612e2f565b9150509250925092565b600060208201905081810360008301526135f68184612e91565b905092915050565b7f4e487b7100000000000000000000000000000000000000000000000000000000600052601160045260246000fd5b600061363882612880565b915061364383612880565b925082820190508082111561365b5761365a6135fe565b5b92915050565b600061366c82612880565b91507fffffffffffffffffffffffffffffffffffffffffffffffffffffffffffffffff820361369e5761369d6135fe565b5b600182019050919050565b7f4e487b7100000000000000000000000000000000000000000000000000000000600052602260045260246000fd5b600060028204905060018216806136f057607f821691505b602082108103613703576137026136a9565b5b50919050565b7f4e487b7100000000000000000000000000000000000000000000000000000000600052603260045260246000fd5b7f596f7520617265206e6f7420616e206f776e6572000000000000000000000000600082015250565b600061376e601483612e80565b915061377982613738565b602082019050919050565b6000602082019050818103600083015261379d81613761565b9050919050565b60008190508160005260206000209050919050565b60006020601f8301049050919050565b600082821b905092915050565b6000600883026138067fffffffffffffffffffffffffffffffffffffffffffffffffffffffffffffffff826137c9565b61381086836137c9565b95508019841693508086168417925050509392505050565b6000819050919050565b600061384d61384861384384612880565b613828565b612880565b9050919050565b6000819050919050565b61386783613832565b61387b61387382613854565b8484546137d6565b825550505050565b600090565b613890613883565b61389b81848461385e565b505050565b5b818110156138bf576138b4600082613888565b6001810190506138a1565b5050565b601f821115613904576138d5816137a4565b6138de846137b9565b810160208510156138ed578190505b6139016138f9856137b9565b8301826138a0565b50505b505050565b600082821c905092915050565b600061392760001984600802613909565b1980831691505092915050565b60006139408383613916565b9150826002028217905092915050565b613959826128a8565b67ffffffffffffffff81111561397257613971613096565b5b61397c82546136d8565b6139878282856138c3565b600060209050601f8311600181146139ba57600084156139a8578287015190505b6139b28582613934565b865550613a1a565b601f1984166139c8866137a4565b60005b828110156139f0578489015182556001820191506020850194506020810190506139cb565b86831015613a0d5784890151613a09601f891682613916565b8355505b6001600288020188555050505b505050505050565b7f5072696365206d7573742062652067726561746572207468616e20302e000000600082015250565b6000613a58601d83612e80565b9150613a6382613a22565b602082019050919050565b60006020820190508181036000830152613a8781613a4b565b9050919050565b7f6f6e6c79206f776e6572206f662074686520636f6e74726163742063616e206360008201527f68616e676520746865206c697374696e67207072696365000000000000000000602082015250565b6000613aea603783612e80565b9150613af582613a8e565b604082019050919050565b60006020820190508181036000830152613b1981613add565b9050919050565b7f4f6e6c7920636f6e7472616374206f776e65722063616e20757064617465206c60008201527f697374696e672070726963652e00000000000000000000000000000000000000602082015250565b6000613b7c602d83612e80565b9150613b8782613b20565b604082019050919050565b60006020820190508181036000830152613bab81613b6f565b9050919050565b7f496e73756666696369656e742066756e64732e00000000000000000000000000600082015250565b6000613be8601383612e80565b9150613bf382613bb2565b602082019050919050565b60006020820190508181036000830152613c1781613bdb565b9050919050565b600081905092915050565b50565b6000613c39600083613c1e565b9150613c4482613c29565b600082019050919050565b6000613c5a82613c2c565b9150819050919050565b7f4e487b7100000000000000000000000000000000000000000000000000000000600052601260045260246000fd5b6000613c9e82612880565b9150613ca983612880565b925082613cb957613cb8613c64565b5b828204905092915050565b7f526174696e67206d757374206265206265747765656e203120616e6420352e00600082015250565b6000613cfa601f83612e80565b9150613d0582613cc4565b602082019050919050565b60006020820190508181036000830152613d2981613ced565b9050919050565b600082905092915050565b613d458383613d30565b67ffffffffffffffff811115613d5e57613d5d613096565b5b613d6882546136d8565b613d738282856138c3565b6000601f831160018114613da25760008415613d90578287013590505b613d9a8582613934565b865550613e02565b601f198416613db0866137a4565b60005b82811015613dd857848901358255600182019150602085019450602081019050613db3565b86831015613df55784890135613df1601f891682613916565b8355505b6001600288020188555050505b50505050505050565b613e1481612cbb565b82525050565b6000613e268385612e80565b9350613e33838584613142565b613e3c836128ee565b840190509392505050565b6000604082019050613e5c6000830186613e0b565b8181036020830152613e6f818486613e1a565b905094935050505056fea26469706673582212202bc507e1dda65bc286121e768781918cd876bfc1ac55229b7d100d156e9b767e64736f6c63430008120033",
  "linkReferences": {},
  "deployedLinkReferences": {}
}